{
  "contractName": "HadeCrowdSale",
  "abi": [
    {
      "constant": false,
      "inputs": [
        {
          "name": "_days",
          "type": "uint256"
        }
      ],
      "name": "startSale",
      "outputs": [],
      "payable": false,
      "stateMutability": "nonpayable",
      "type": "function"
    },
    {
      "constant": false,
      "inputs": [
        {
          "name": "_tokenAddress",
          "type": "address"
        }
      ],
      "name": "setTokenAddress",
      "outputs": [],
      "payable": false,
      "stateMutability": "nonpayable",
      "type": "function"
    },
    {
      "constant": true,
      "inputs": [],
      "name": "rate",
      "outputs": [
        {
          "name": "",
          "type": "uint256"
        }
      ],
      "payable": false,
      "stateMutability": "view",
      "type": "function"
    },
    {
      "constant": true,
      "inputs": [],
      "name": "endTime",
      "outputs": [
        {
          "name": "",
          "type": "uint256"
        }
      ],
      "payable": false,
      "stateMutability": "view",
      "type": "function"
    },
    {
      "constant": true,
      "inputs": [],
      "name": "weiRaised",
      "outputs": [
        {
          "name": "",
          "type": "uint256"
        }
      ],
      "payable": false,
      "stateMutability": "view",
      "type": "function"
    },
    {
      "constant": true,
      "inputs": [],
      "name": "adminMultiSig",
      "outputs": [
        {
          "name": "",
          "type": "address"
        }
      ],
      "payable": false,
      "stateMutability": "view",
      "type": "function"
    },
    {
      "constant": true,
      "inputs": [],
      "name": "isSaleActive",
      "outputs": [
        {
          "name": "",
          "type": "bool"
        }
      ],
      "payable": false,
      "stateMutability": "view",
      "type": "function"
    },
    {
      "constant": true,
      "inputs": [],
      "name": "startTime",
      "outputs": [
        {
          "name": "",
          "type": "uint256"
        }
      ],
      "payable": false,
      "stateMutability": "view",
      "type": "function"
    },
    {
      "constant": true,
      "inputs": [],
      "name": "isTokenDeployed",
      "outputs": [
        {
          "name": "",
          "type": "bool"
        }
      ],
      "payable": false,
      "stateMutability": "view",
      "type": "function"
    },
    {
      "constant": false,
      "inputs": [
        {
          "name": "_beneficiary",
          "type": "address"
        }
      ],
      "name": "buyTokens",
      "outputs": [],
      "payable": true,
      "stateMutability": "payable",
      "type": "function"
    },
    {
      "constant": true,
      "inputs": [],
      "name": "hasEnded",
      "outputs": [
        {
          "name": "",
          "type": "bool"
        }
      ],
      "payable": false,
      "stateMutability": "view",
      "type": "function"
    },
    {
      "constant": false,
      "inputs": [],
      "name": "end",
      "outputs": [],
      "payable": false,
      "stateMutability": "nonpayable",
      "type": "function"
    },
    {
      "constant": true,
      "inputs": [],
      "name": "token",
      "outputs": [
        {
          "name": "",
          "type": "address"
        }
      ],
      "payable": false,
      "stateMutability": "view",
      "type": "function"
    },
    {
      "inputs": [],
      "payable": false,
      "stateMutability": "nonpayable",
      "type": "constructor"
    },
    {
      "payable": true,
      "stateMutability": "payable",
      "type": "fallback"
    },
    {
      "anonymous": false,
      "inputs": [
        {
          "indexed": true,
          "name": "purchaser",
          "type": "address"
        },
        {
          "indexed": true,
          "name": "beneficiary",
          "type": "address"
        },
        {
          "indexed": false,
          "name": "value",
          "type": "uint256"
        },
        {
          "indexed": false,
          "name": "amount",
          "type": "uint256"
        }
      ],
      "name": "TokenPurchase",
      "type": "event"
    }
  ],
  "bytecode": "0x60606040526000600660006101000a81548160ff0219169083151502179055506000600660016101000a81548160ff021916908315150217905550341561004557600080fd5b611d4c60048190555033600360006101000a81548173ffffffffffffffffffffffffffffffffffffffff021916908373ffffffffffffffffffffffffffffffffffffffff1602179055506109738061009e6000396000f3006060604052600436106100c5576000357c0100000000000000000000000000000000000000000000000000000000900463ffffffff1680630e3ab61d146100d057806326a4e8d2146100f35780632c4e722e1461012c5780633197cbb6146101555780634042b66f1461017e57806345c6a874146101a7578063564566a8146101fc57806378e9792514610229578063c24cda8114610252578063ec8ac4d81461027f578063ecb70fb7146102ad578063efbe1c1c146102da578063fc0c546a146102ef575b6100ce33610344565b005b34156100db57600080fd5b6100f16004808035906020019091905050610566565b005b34156100fe57600080fd5b61012a600480803573ffffffffffffffffffffffffffffffffffffffff16906020019091905050610613565b005b341561013757600080fd5b61013f610728565b6040518082815260200191505060405180910390f35b341561016057600080fd5b61016861072e565b6040518082815260200191505060405180910390f35b341561018957600080fd5b610191610734565b6040518082815260200191505060405180910390f35b34156101b257600080fd5b6101ba61073a565b604051808273ffffffffffffffffffffffffffffffffffffffff1673ffffffffffffffffffffffffffffffffffffffff16815260200191505060405180910390f35b341561020757600080fd5b61020f610760565b604051808215151515815260200191505060405180910390f35b341561023457600080fd5b61023c610773565b6040518082815260200191505060405180910390f35b341561025d57600080fd5b610265610779565b604051808215151515815260200191505060405180910390f35b6102ab600480803573ffffffffffffffffffffffffffffffffffffffff16906020019091905050610344565b005b34156102b857600080fd5b6102c061078c565b604051808215151515815260200191505060405180910390f35b34156102e557600080fd5b6102ed610798565b005b34156102fa57600080fd5b61030261081c565b604051808273ffffffffffffffffffffffffffffffffffffffff1673ffffffffffffffffffffffffffffffffffffffff16815260200191505060405180910390f35b600080600073ffffffffffffffffffffffffffffffffffffffff168373ffffffffffffffffffffffffffffffffffffffff161415151561038357600080fd5b61038b610841565b151561039657600080fd5b3491506103a282610874565b90506103b98260055461089290919063ffffffff16565b6005819055506000809054906101000a900473ffffffffffffffffffffffffffffffffffffffff1673ffffffffffffffffffffffffffffffffffffffff166323b872dd600360009054906101000a900473ffffffffffffffffffffffffffffffffffffffff1685846040518463ffffffff167c0100000000000000000000000000000000000000000000000000000000028152600401808473ffffffffffffffffffffffffffffffffffffffff1673ffffffffffffffffffffffffffffffffffffffff1681526020018373ffffffffffffffffffffffffffffffffffffffff1673ffffffffffffffffffffffffffffffffffffffff1681526020018281526020019350505050600060405180830381600087803b15156104d857600080fd5b6102c65a03f115156104e957600080fd5b5050508273ffffffffffffffffffffffffffffffffffffffff163373ffffffffffffffffffffffffffffffffffffffff167f623b3804fa71d67900d064613da8f94b9617215ee90799290593e1745087ad188484604051808381526020018281526020019250505060405180910390a36105616108b0565b505050565b600360009054906101000a900473ffffffffffffffffffffffffffffffffffffffff1673ffffffffffffffffffffffffffffffffffffffff163373ffffffffffffffffffffffffffffffffffffffff161415156105c257600080fd5b6000811115156105d157600080fd5b4260018190555062015180810242016002819055506001600660016101000a81548160ff02191690831515021790555060015460025411151561061057fe5b50565b600360009054906101000a900473ffffffffffffffffffffffffffffffffffffffff1673ffffffffffffffffffffffffffffffffffffffff163373ffffffffffffffffffffffffffffffffffffffff1614151561066f57600080fd5b60001515600660009054906101000a900460ff1615151480156106bf5750600073ffffffffffffffffffffffffffffffffffffffff168173ffffffffffffffffffffffffffffffffffffffff1614155b15156106ca57600080fd5b806000806101000a81548173ffffffffffffffffffffffffffffffffffffffff021916908373ffffffffffffffffffffffffffffffffffffffff1602179055506001600660006101000a81548160ff02191690831515021790555050565b60045481565b60025481565b60055481565b600360009054906101000a900473ffffffffffffffffffffffffffffffffffffffff1681565b600660019054906101000a900460ff1681565b60015481565b600660009054906101000a900460ff1681565b60006002544211905090565b600360009054906101000a900473ffffffffffffffffffffffffffffffffffffffff1673ffffffffffffffffffffffffffffffffffffffff163373ffffffffffffffffffffffffffffffffffffffff161415156107f457600080fd5b60025442111561081a576000600660016101000a81548160ff0219169083151502179055505b565b6000809054906101000a900473ffffffffffffffffffffffffffffffffffffffff1681565b6000806000600154421015801561085a57506002544211155b91506000341415905081801561086d5750805b9250505090565b600061088b6004548361091490919063ffffffff16565b9050919050565b60008082840190508381101515156108a657fe5b8091505092915050565b600360009054906101000a900473ffffffffffffffffffffffffffffffffffffffff1673ffffffffffffffffffffffffffffffffffffffff166108fc349081150290604051600060405180830381858888f19350505050151561091257600080fd5b565b60008082840290506000841480610935575082848281151561093257fe5b04145b151561093d57fe5b80915050929150505600a165627a7a7230582075da1914224544f3a7f56e96c82e93062fb191c03d4149b519fecad3f7bca5cb0029",
  "source": "pragma solidity ^0.4.18;\n\nimport \"./HadeCoin.sol\";\nimport \"./lib/SafeMath.sol\";\n\n\n/**\n * @title Crowdsale\n * @dev Crowdsale is a base contract for managing a token crowdsale.\n * Crowdsales have a start and end timestamps, where investors can make\n * token purchases and the crowdsale will assign them tokens based\n * on a token per ETH rate. Funds collected are forwarded to a adminMultiSig\n * as they arrive. The contract requires a MintableToken that will be\n * minted as contributions arrive, note that the crowdsale contract\n * must be owner of the token in order to be able to mint it.\n */\ncontract HadeCrowdSale {\n\n  using SafeMath for uint256;\n\n  // The token being sold\n  HadeCoin public token;\n\n  // start and end timestamps where investments are allowed (both inclusive)\n  uint256 public startTime;\n  uint256 public endTime;\n\n  // address where funds are collected\n  address public adminMultiSig;\n\n  // how many token units a buyer gets per wei\n  uint256 public rate;\n\n  // amount of raised money in wei\n  uint256 public weiRaised;\n\n  // check if token is deployed and connected\n  bool public isTokenDeployed = false;\n\n  // check if crowd sale is active\n  bool public isSaleActive = false;\n\n  /**\n   * event for token purchase logging\n   * @param purchaser who paid for the tokens\n   * @param beneficiary who got the tokens\n   * @param value weis paid for purchase\n   * @param amount amount of tokens purchased\n   */\n  event TokenPurchase(address indexed purchaser, address indexed beneficiary, uint256 value, uint256 amount);\n\n  modifier onlyAdmin() {\n      require(msg.sender == adminMultiSig);\n      _;\n  }\n\n  function HadeCrowdSale() public {\n    rate = 7500;\n    adminMultiSig = msg.sender;\n  }\n\n  // fallback function can be used to buy tokens\n  function () external payable {\n    buyTokens(msg.sender);\n  }\n\n\n  function setTokenAddress(address _tokenAddress)\n\n  external\n  onlyAdmin\n  {\n    require(isTokenDeployed == false && _tokenAddress != address(0));\n    token = HadeCoin(_tokenAddress);\n    isTokenDeployed = true;\n  }\n\n  // start sale\n  function startSale(uint256 _days) external onlyAdmin {\n      require(_days > 0);\n      startTime = now;\n      endTime = now + _days * 1 days;\n      isSaleActive = true;\n      assert(endTime > startTime);\n  }\n\n  // end sale\n  function end() external onlyAdmin {\n      if (now > endTime) {\n          isSaleActive = false;\n      }\n  }\n\n  // low level token purchase function\n  function buyTokens(address _beneficiary) public payable {\n    require(_beneficiary != address(0));\n    require(_validPurchase());\n\n    uint256 _weiAmount = msg.value;\n\n    // calculate token amount to be created\n    uint256 _tokens = _getTokenAmount(_weiAmount);\n\n    // update state\n    weiRaised = weiRaised.add(_weiAmount);\n\n    token.transferFrom(adminMultiSig, _beneficiary, _tokens);\n    TokenPurchase(msg.sender, _beneficiary, _weiAmount, _tokens);\n\n    _forwardFunds();\n  }\n\n  // @return true if crowdsale event has ended\n  function hasEnded() public view returns (bool) {\n    return now > endTime;\n  }\n\n  // Override this method to have a way to add business logic to your crowdsale when buying\n  function _getTokenAmount(uint256 weiAmount) internal view returns(uint256) {\n    return weiAmount.mul(rate);\n  }\n\n  // send ether to the fund collection adminMultiSig\n  // override to create custom fund forwarding mechanisms\n  function _forwardFunds() internal {\n    adminMultiSig.transfer(msg.value);\n  }\n\n  // @return true if the transaction can buy tokens\n  function _validPurchase() internal view returns (bool) {\n    bool withinPeriod = now >= startTime && now <= endTime;\n    bool nonZeroPurchase = msg.value != 0;\n    return withinPeriod && nonZeroPurchase;\n  }\n\n}\n",
  "sourcePath": "/Users/stevelee/Documents/w3d/CoinProject/NewHade/contracts/HadeCrowdSale.sol",
  "compiler": {
    "name": "solc",
    "version": "0.4.18+commit.9cf6e910.Emscripten.clang"
  },
  "schemaVersion": "1.0.1",
  "updatedAt": "2018-02-03T18:51:10.761Z"
}